{
  "_format": "hh-sol-artifact-1",
  "contractName": "Token",
  "sourceName": "contracts/Token.sol",
  "abi": [
    {
      "inputs": [],
      "stateMutability": "nonpayable",
      "type": "constructor"
    },
    {
      "inputs": [
        {
          "internalType": "address",
          "name": "account",
          "type": "address"
        }
      ],
      "name": "balanceOf",
      "outputs": [
        {
          "internalType": "uint256",
          "name": "",
          "type": "uint256"
        }
      ],
      "stateMutability": "view",
      "type": "function"
    },
    {
      "inputs": [],
      "name": "name",
      "outputs": [
        {
          "internalType": "string",
          "name": "",
          "type": "string"
        }
      ],
      "stateMutability": "view",
      "type": "function"
    },
    {
      "inputs": [],
      "name": "symbol",
      "outputs": [
        {
          "internalType": "string",
          "name": "",
          "type": "string"
        }
      ],
      "stateMutability": "view",
      "type": "function"
    },
    {
      "inputs": [],
      "name": "totalSupply",
      "outputs": [
        {
          "internalType": "uint256",
          "name": "",
          "type": "uint256"
        }
      ],
      "stateMutability": "view",
      "type": "function"
    },
    {
      "inputs": [
        {
          "internalType": "address",
          "name": "to",
          "type": "address"
        },
        {
          "internalType": "uint256",
          "name": "amount",
          "type": "uint256"
        }
      ],
      "name": "transfer",
      "outputs": [],
      "stateMutability": "nonpayable",
      "type": "function"
    }
  ],
  "bytecode": "0x60806040526040518060400160405280601181526020017f4e6164657220446162697420546f6b656e0000000000000000000000000000008152506000908051906020019061004f9291906100fb565b506040518060400160405280600381526020017f4e445400000000000000000000000000000000000000000000000000000000008152506001908051906020019061009b9291906100fb565b50620f42406002553480156100af57600080fd5b50600254600360003373ffffffffffffffffffffffffffffffffffffffff1673ffffffffffffffffffffffffffffffffffffffff168152602001908152602001600020819055506101ff565b8280546101079061019e565b90600052602060002090601f0160209004810192826101295760008555610170565b82601f1061014257805160ff1916838001178555610170565b82800160010185558215610170579182015b8281111561016f578251825591602001919060010190610154565b5b50905061017d9190610181565b5090565b5b8082111561019a576000816000905550600101610182565b5090565b600060028204905060018216806101b657607f821691505b602082108114156101ca576101c96101d0565b5b50919050565b7f4e487b7100000000000000000000000000000000000000000000000000000000600052602260045260246000fd5b6107398061020e6000396000f3fe608060405234801561001057600080fd5b50600436106100575760003560e01c806306fdde031461005c57806318160ddd1461007a57806370a082311461009857806395d89b41146100c8578063a9059cbb146100e6575b600080fd5b610064610102565b6040516100719190610499565b60405180910390f35b610082610190565b60405161008f91906104db565b60405180910390f35b6100b260048036038101906100ad91906103c9565b610196565b6040516100bf91906104db565b60405180910390f35b6100d06101df565b6040516100dd9190610499565b60405180910390f35b61010060048036038101906100fb91906103f2565b61026d565b005b6000805461010f9061060b565b80601f016020809104026020016040519081016040528092919081815260200182805461013b9061060b565b80156101885780601f1061015d57610100808354040283529160200191610188565b820191906000526020600020905b81548152906001019060200180831161016b57829003601f168201915b505050505081565b60025481565b6000600360008373ffffffffffffffffffffffffffffffffffffffff1673ffffffffffffffffffffffffffffffffffffffff168152602001908152602001600020549050919050565b600180546101ec9061060b565b80601f01602080910402602001604051908101604052809291908181526020018280546102189061060b565b80156102655780601f1061023a57610100808354040283529160200191610265565b820191906000526020600020905b81548152906001019060200180831161024857829003601f168201915b505050505081565b80600360003373ffffffffffffffffffffffffffffffffffffffff1673ffffffffffffffffffffffffffffffffffffffff1681526020019081526020016000205410156102ef576040517f08c379a00000000000000000000000000000000000000000000000000000000081526004016102e6906104bb565b60405180910390fd5b80600360003373ffffffffffffffffffffffffffffffffffffffff1673ffffffffffffffffffffffffffffffffffffffff168152602001908152602001600020600082825461033e9190610568565b9250508190555080600360008473ffffffffffffffffffffffffffffffffffffffff1673ffffffffffffffffffffffffffffffffffffffff16815260200190815260200160002060008282546103949190610512565b925050819055505050565b6000813590506103ae816106d5565b92915050565b6000813590506103c3816106ec565b92915050565b6000602082840312156103db57600080fd5b60006103e98482850161039f565b91505092915050565b6000806040838503121561040557600080fd5b60006104138582860161039f565b9250506020610424858286016103b4565b9150509250929050565b6000610439826104f6565b6104438185610501565b93506104538185602086016105d8565b61045c8161069b565b840191505092915050565b6000610474601183610501565b915061047f826106ac565b602082019050919050565b610493816105ce565b82525050565b600060208201905081810360008301526104b3818461042e565b905092915050565b600060208201905081810360008301526104d481610467565b9050919050565b60006020820190506104f0600083018461048a565b92915050565b600081519050919050565b600082825260208201905092915050565b600061051d826105ce565b9150610528836105ce565b9250827fffffffffffffffffffffffffffffffffffffffffffffffffffffffffffffffff0382111561055d5761055c61063d565b5b828201905092915050565b6000610573826105ce565b915061057e836105ce565b9250828210156105915761059061063d565b5b828203905092915050565b60006105a7826105ae565b9050919050565b600073ffffffffffffffffffffffffffffffffffffffff82169050919050565b6000819050919050565b60005b838110156105f65780820151818401526020810190506105db565b83811115610605576000848401525b50505050565b6000600282049050600182168061062357607f821691505b602082108114156106375761063661066c565b5b50919050565b7f4e487b7100000000000000000000000000000000000000000000000000000000600052601160045260246000fd5b7f4e487b7100000000000000000000000000000000000000000000000000000000600052602260045260246000fd5b6000601f19601f8301169050919050565b7f4e6f7420656e6f75676820746f6b656e73000000000000000000000000000000600082015250565b6106de8161059c565b81146106e957600080fd5b50565b6106f5816105ce565b811461070057600080fd5b5056fea2646970667358221220d42088afa1228c5e13564de4f269de8ebcb967feec700352a3373c3de3a4e34364736f6c63430008040033",
  "linkReferences": {},
  "deployedLinkReferences": {}
}